S01E00006D6D6972613031345F637573746F6D70726F6A6563742E737265636A
S113000045C0000060C000005EC000005CC000008D
S11300105AC0000058C0000056C0000054C0000080
S113002052C0000050C000004EC000004CC0000090
S11300304AC000004CC1000046C0000044C000009B
S113004042C0000040C000003EC000003CC00000B0
S11300503AC0000038C0000036C0000034C00000C0
S113006032C0000030C000002EC000002CC00000D0
S11300702AC0000028C0000026C0000024C00000E0
S113008022C0000020C000001EC0000011241FBEBA
S1130090CFEFD0E4DEBFCDBF11E0A0E0B1E0E2E6F7
S11300A0F6E000E00BBF02C007900D92A832B10742
S11300B0D9F721E0A8E2B1E001C01D92A033B20754
S11300C0E1F707D2CCC29CCF2998662311F02A9A73
S11300D015C02A9813C0AC01022E02C0559547954D
S11300E00A94E2F740FF02C02B9A01C02B982C9A85
S11300F02C982150310978F7299A089527E030E0A7
S113010090E0E9CF60E0E0CF08958130910539F0C7
S11301101CF4892B71F01EC00497E4F40AC080918A
S11301202801882331F080912F01813039F0882310
S113013059F010922E0181E090E0089581E08093BF
S11301402E0182E090E0089582E080932E0183E006
S113015090E0089580E090E008950297E0F48091A3
S11301602F01813061F486E0E2E2F1E0A4E1B1E044
S113017001900D928A95E1F781E090E0089588E07E
S1130180E0E2F1E0A4E1B1E001900D928A95E1F79B
S113019081E090E0089580E090E0089560931C0170
S11301A070931D0180931E0190931F016093290198
S11301B070932A0180932B0190932C0108958BE076
S11301C0809381008DE790E090938900809388006C
S11301D082E080936F0010928500109284008091D9
S11301E01C0190911D01A0911E01B0911F018093EB
S11301F0290190932A01A0932B01B0932C018FB76E
S113020080688FBF0895029708F05EC080912E0128
S1130210813049F018F0823061F151C081E082B937
S113022081E090E00895E1E8F0E01082A0E8B0E019
S11302308C91826C8C938081896180838FE19EE4B0
S1130240909387008093860084E790E490938900DC
S1130250809388008FEF82B92FEB87E299E02150D9
S113026080409040E1F700C00000A9DF81E090E009
S11302700895E1E8F0E010828FE082B9A0E8B0E0F0
S11302808C91826C8C938081896180838FE19EE460
S1130290909387008093860080E797E1909389008C
S11302A0809388002FEB87E299E0215080409040B2
S11302B0E1F700C0000083DF81E090E0089583E06F
S11302C082B981E090E0089580E090E008951F9263
S11302D00F920FB60F9211248F939F93AF93BF93F6
S11302E08091290190912A01A0912B01B0912C01B8
S11302F00197A109B1098093290190932A01A09340
S11303002B01B0932C01892B8A2B8B2B99F481E040
S113031080932D0180911C0190911D01A0911E01DB
S1130320B0911F018093290190932A01A0932B017E
S1130330B0932C01BF91AF919F918F910F900FBEFD
S11303400F901F901895813081F0E1ECF0E08081EE
S113035088618083E2ECF0E080818660808383E3BF
S11303608093C4001092C5000895E9ECF0E0808108
S113037088618083EAECF0E080818660808383E397
S11303808093CC001092CD000895813029F480919F
S1130390C800882374F008958091C00088238CF4E9
S11303A0A6ECB0E0E0ECF0E08C9180818823E4F3EB
S11303B00895AEECB0E0E8ECF0E08C918081882305
S11303C0E4F30895813041F0E0ECF0E0808188238B
S11303D0ECF78091C6000895E8ECF0E08081882372
S11303E0ECF78091CE000895CF93DF93EC01813038
S11303F0910539F01CF4892BB1F02FC004976CF5EA
S113040012C080E0A0DF80E0DDDF8370823019F06D
S1130410813031F403C0C2E0D0E002C0C3E0D0E0D8
S113042080E0B3DF02C0C1E0D0E0C230D10549F0C2
S1130430C330D10561F0C130D10589F4109228018F
S11304400EC081E08093280180932F0108C081E0D1
S11304508093280110922F0102C0C0E0D0E0CE01A9
S1130460DF91CF910895CF93DF93219A209A229A16
S1130470239A249A289A299A83EC99E00197F1F710
S113048000C0000028988BE594E40197F1F700C0C0
S11304900000289A299881E235DE83E133DE86E084
S11304A031DE82EC2FDE80E22DDE89E02BDE80E877
S11304B029DE8FEF27DEC8EFD1E061E080E004DEC3
S11304C02197D9F788E01EDE8CE01CDEDF91CF9106
S11304D00895CF93DF93CDB7DEB7AC970FB6F894FA
S11304E0DEBF0FBECDBF8FEF81B982B990EF9AB94D
S11304F01BB884B915B8B7DF80E025DF10922F014F
S113050060910001709101018091020190910301B9
S113051045DE55DE19828091100190911101A09160
S11305201201B09113018A839B83AC83BD838E83B4
S11305309F83A887B98784EF91E09B878A871C866D
S11305408091080190910901A0910A01B0910B01D9
S11305508D879E87AF87B88B898B9A8BAB8BBC8B2F
S11305608DEA90E09E8B8D8B1F8A80910C01909177
S11305700D01A0910E01B0910F01888F998FAA8F60
S1130580BB8F8C8F9D8FAE8FBF8F85E890E099A332
S113059088A31AA28091040190910501A0910601FB
S11305A0B09107018BA39CA3ADA3BEA38FA398A76F
S11305B0A9A7BAA783E091E09CA78BA788E082B99A
S11305C06E018DE2C80ED11C8E010F5F1F4F7801A2
S11305D0D80115964D915D916D917C911897119666
S11305E08D919D910D90BC91A02D481759076A07D4
S11305F07B0780F0F80180810184F285E02D082ECC
S1130600000C990B0995D8018C93F8011582168278
S113061017821086D70115964D915D916D917C914D
S113062018978091000190910101A0910201B0916D
S11306300301840F951FA61FB71FF70185839683B7
S1130640A783B087055F1F4F0C151D0509F0BFCFA9
S113065080912D018823E1F310922D01B5CFF894F8
S1050660FFCFC6
S11306623200000032000000640000006400000058
S1130672C8000000554E41524D454400010000009F
S10B0682554E41524D45440060
S9030000FC
