S01E00006D6D6972613031345F637573746F6D70726F6A6563742E737265636A
S113000035C1000050C100004EC100004CC10000C9
S11300104AC1000048C1000046C1000044C10000BC
S113002042C1000040C100003EC100003CC10000CC
S11300303AC10000DCC1000036C1000034C1000038
S113004032C1000030C100002EC100002CC10000EC
S11300502AC1000028C1000026C1000024C10000FC
S113006022C1000020C100001EC100001CC100000C
S11300701AC1000018C1000016C1000014C100001C
S113008012C1000010C100000EC1000000000000F9
S11300900000005F00000007000700147F147F14B5
S11300A0242A7F2A122313086462364955225000F9
S11300B005030000001C2241000041221C0014081A
S11300C03E081408083E08080050300000080808DC
S11300D00808006060000020100804023E514945F1
S11300E03E00427F400042615149462141454B3127
S11300F01814127F1027454545393C4A49493001B7
S1130100710905033649494936064949291E00360D
S1130110360000005636000008142241001414145E
S1130120141400412214080201510906324979418C
S11301303E7E1111117E7F494949363E414141229B
S11301407F4141221C7F494949417F090909013EF8
S11301504149497A7F0808087F00417F41002040D7
S1130160413F017F081422417F404040407F020C00
S1130170027F7F0408107F3E4141413E7F09090907
S1130180063E4151215E7F091929464649494931B4
S113019001017F01013F4040403F1F2040201F3F9D
S11301A04038403F6314081463070870080761511E
S11301B0494543007F4141000204081020004141A9
S11301C07F00040201020440404040400001020458
S11301D00020545454787F484444383844444420DC
S11301E0384444487F3854545418087E0901020C9A
S11301F05252523E7F0804047800447D400020405F
S1130200443D007F1028440000417F40007C0418D6
S113021004787C0804047838444444387C14141466
S113022008081414187C7C08040408485454542006
S1130230043F4440203C4040207C1C2040201C3C87
S11302404030403C44281028440C5050503C4464F6
S1130250544C44000836410000007F000000413641
S113026008001008081008000000000011241FBE38
S1130270CFEFD0E4DEBFCDBF11E0A0E0B1E0ECE60B
S1130280FCE000E00BBF02C007900D92A033B10761
S1130290D9F723E0A0E3B1E001C01D92A333B20774
S11302A0E1F712D4E1C4ACCE2998662311F02A9A5E
S11302B015C02A9813C0AC01022E02C0559547956B
S11302C00A94E2F740FF02C02B9A01C02B982C9AA3
S11302D02C982150310978F7299A089527E030E0C5
S11302E090E0E9CF60E0E0CF08958130910539F0E6
S11302F01CF4892B71F01EC00497E4F40AC08091A9
S11303003001882331F080913203813039F0882321
S113031059F01092310381E090E0089581E08093D8
S1130320310382E090E0089582E08093310383E01A
S113033090E0089580E090E00895029700F58091A0
S11303403203813071F48093310187E0E0E2F1E01F
S1130350A4E1B1E001900D928A95E1F781E090E08B
S113036008951092310188E0E7E2F1E0A4E1B1E000
S113037001900D928A95E1F781E090E0089580E084
S113038090E0089560931C0170931D0180931E01F9
S113039090931F0160932C0370932D0380932E037D
S11303A090932F0308958BE0809381008DE790E074
S11303B0909389008093880082E080936F0010926C
S11303C085001092840080911C0190911D01A091E0
S11303D01E01B0911F0180932C0390932D03A093D1
S11303E02E03B0932F038FB780688FBF08951F9299
S11303F00F920FB60F9211248F939F93AF93BF93D5
S113040080912C0390912D03A0912E03B0912F0382
S11304100197A109B10980932C0390932D03A09314
S11304202E03B0932F03892B8A2B8B2B99F481E015
S11304308093300380911C0190911D01A0911E01B5
S1130440B0911F0180932C0390932D03A0932E034E
S1130450B0932F03BF91AF919F918F910F900FBED7
S11304600F901F901895813081F0E1ECF0E08081CD
S113047088618083E2ECF0E080818660808383E39E
S11304808093C4001092C5000895E9ECF0E08081E7
S113049088618083EAECF0E080818660808383E376
S11304A08093CC001092CD000895813029F480917E
S11304B0C800882374F008958091C00088238CF4C8
S11304C0A6ECB0E0E0ECF0E08C9180818823E4F3CA
S11304D00895AEECB0E0E8ECF0E08C9180818823E4
S11304E0E4F30895813041F0E0ECF0E0808188236A
S11304F0ECF78091C6000895E8ECF0E08081882351
S1130500ECF78091CE000895CF93DF93EC01813016
S1130510910539F01CF4892BB1F02FC004976CF5C8
S113052012C080E0A0DF80E0DDDF8370823019F04C
S1130530813031F403C0C2E0D0E002C0C3E0D0E0B7
S113054080E0B3DF02C0C1E0D0E0C230D10549F0A1
S1130550C330D10561F0C130D10589F41092300166
S11305600EC081E0809330018093320308C081E0A3
S1130570809330011092320302C0C0E0D0E0CE017B
S1130580DF91CF910895CF93DF93219A209A229AF5
S1130590239A249A289A299A83EC99E00197F1F7EF
S11305A000C0000028988BE594E40197F1F700C09F
S11305B00000289A299881E295DE83E193DE86E0A3
S11305C091DE82EC8FDE80E28DDE89E08BDE80E8D6
S11305D089DE8FEF87DEC8EFD1E061E080E064DE82
S11305E02197D9F788E07EDE8CE07CDEDF91CF9125
S11305F0089580E877DE80E475DE10922A03109275
S11306002B03E2E3F1E08AE293E01192E817F907A1
S1130610E1F70895262F26952695269590E034E552
S1130620239F800D911D1124442379F0FC01EE5C7D
S1130630FE4F677081E090E002C0880F991F6A95B1
S1130640E2F79081892B80830895FC01EE5CFE4FD4
S1130650677081E090E002C0880F991F6A95E2F705
S1130660809590818923808308955F926F927F9211
S11306708F929F92AF92BF92CF92DF92EF92FF92AE
S11306800F931F93CF93DF93562E262F30E049010B
S1130690880C991C880C991C820E931E181419043A
S11306A00CF059C08901000F111F000F111F000F1A
S11306B0111F021B130B612CA82EB12CC5018097AE
S11306C05C01AA0CBB1CAA0CBB1CA80EB91E0F2EE5
S11306D0FBE2CF2EF3E0DF2EF02D0F2EFAE2EF2E09
S11306E0F3E0FF2EF02D2AC0FE01249130E0872D87
S11306F0652DAED202C0359527958A95E2F720FF85
S113070009C0F6016081670DF701808141E0860D23
S113071081DF08C0F6016081670DF701808140E048
S1130720860D78DF7394872D90E080179107E4F2AB
S11307306394862D90E0881599056CF410161106C3
S1130740BCF7862D652D84D2E501C80FD11DC45791
S1130750DF4F712CC9CF80912A0391E0980F852D2A
S1130760880F880F850D890F843518F480932A0328
S11307700EC010922A03EBE2F3E0808191E0980F1F
S1130780852D880F880F880F8519890F80838091A4
S11307902B03803320F010922A0310922B03DF9155
S11307A0CF911F910F91FF90EF90DF90CF90BF906A
S11307B0AF909F908F907F906F905F9008951F935C
S11307C0CF93DF93EC018881882339F0162F21968B
S11307D0612F4BDF89918111FBCFDF91CF911F9165
S11307E008950F931F93CF93DF9380E87BDD80E41C
S11307F079DDC2E3D1E00AE213E061E0899154DDDE
S1130800C017D107D1F7DF91CF911F910F910895B0
S11308100F931F93CF93DF93882369F0D9E179C0B5
S113082041E06C2F8D2FF6DECF5FC332C9F7DF5F57
S1130830D23311F40EC0D9E1CFE0F2CF40E06D2FF6
S11308408C2FE8DECF5FC732C9F7DF5FDC3111F4EC
S11308500EC0D6E1C4E2F2CF41E06D2F8C2FDADE78
S1130860CF5FCD31C9F7DF5FD03111F40EC0DAE0CC
S1130870C9E1F2CF41E06D2F8C2FCCDECF5FCF31B9
S1130880C9F7DF5FDB3011F40EC0D5E0CBE1F2CF66
S113089041E06D2F8C2FBEDECF5FC132C9F7DF5F21
S11308A0D73011F40EC0D2E0CEE1F2CF41E0612F97
S11308B08C2FB0DECF5FC932C9F71F5F143011F43B
S11308C00EC011E0C0E2F2CF41E0602F8D2FA2DE16
S11308D0DF5FDD32C9F70F5F083011F40EC002E0AC
S11308E0DC2FF2CF41E0612F8C2F94DECF5FCE322C
S11308F0C9F71F5F1A3009F47AC0CAE2F3CF41E0A6
S11309006C2F8D2F87DECF5FC332C9F7DF5FD23301
S113091069F0CFE0F4CF40E06D2F8C2F7BDECF5F0A
S1130920C732C9F7DF5FDC3111F40EC0D6E1C4E28F
S1130930F2CF41E06D2F8C2F6DDECF5FCD31C9F743
S1130940DF5FD03111F40EC0DAE0C9E1F2CF41E04B
S11309506D2F8C2F5FDECF5FCF31C9F7DF5FDB30C8
S113096011F40EC0D5E0CBE1F2CF41E06D2F8C2F16
S113097051DECF5FC132C9F7DF5FD73011F40EC04B
S1130980D2E0CEE1F2CF41E06D2F8C2F43DECF5F7A
S1130990CA32C9F7DF5FD43011F40EC0D1E0C0E22F
S11309A0F2CF41E0602F812F35DE1F5F1D32C9F782
S11309B00F5F073011F40DC002E01C2FF2CF41E0AD
S11309C06D2F8C2F27DECF5FC033C9F7DF5FDA309E
S11309D061F0CCE2F4CF41E06D2F8C2F1BDECF5FB2
S11309E0C233C9F7DF5FD03111F0CEE2F4CFDF912B
S11309F0CF911F910F910895029708F05FC0C3DD56
S1130A00F8DD8091310104DF81E180932A0388E2DB
S1130A1080932B0361E084E191E0D1DEE2DE8091FA
S1130A203103813019F0823029F14BC0E1E8F0E064
S1130A301082A0E8B0E08C91826C8C9380818961F3
S1130A4080838FE19EE4909387008093860084E7FF
S1130A5090E490938900809388002FEB87E299E0DB
S1130A60215080409040E1F700C000009CDC81E010
S1130A7090E00895E1E8F0E01082A0E8B0E08C9105
S1130A80826C8C938081896180838FE19EE4909352
S1130A9087008093860080E797E190938900809394
S1130AA088002FEB87E299E0215080409040E1F7E5
S1130AB000C0000078DC81E090E0089580E090E0E0
S1130AC0089581E090E00895CF93DF93CDB7DEB72A
S1130AD0AC970FB6F894DEBF0FBECDBF80EF8AB9D6
S1130AE01BB88FEF84B915B84EDD80E0BCDC1092E2
S1130AF03203609100017091010180910201909193
S1130B00030140DC50DC19828091100190911101A5
S1130B10A0911201B09113018A839B83AC83BD839E
S1130B208E839F83A887B98784E892E09B878A870E
S1130B301C868091080190910901A0910A01B0914D
S1130B400B018D879E87AF87B88B898B9A8BAB8B74
S1130B50BC8B8DE991E09E8B8D8B1F8A80910C015B
S1130B6090910D01A0910E01B0910F01888F998F82
S1130B70AA8FBB8F8C8F9D8FAE8FBF8F85E791E03F
S1130B8099A388A31AA28091040190910501A091D0
S1130B900601B09107018BA39CA3ADA3BEA38FA3B1
S1130BA098A7A9A7BAA78CEF94E09CA78BA788E085
S1130BB082B96E018DE2C80ED11C8E010F5F1F4FEA
S1130BC07801D80115964D915D916D917C9118979E
S1130BD011968D919D910D90BC91A02D48175907A8
S1130BE06A077B0780F0F80180810184F285E02D9B
S1130BF0082E000C990B0995D8018C93F8011582E5
S1130C00168217821086D70115964D915D916D91CC
S1130C107C9118978091000190910101A0910201AB
S1130C20B0910301840F951FA61FB71FF701858399
S1130C309683A783B087055F1F4F0C151D0509F028
S1130C40BFCF809130038823E1F310923003B5CFF6
S1130C50991B79E004C0991F961708F0961B881F0A
S10F0C607A95C9F780950895F894FFCFA9
S1130C6C64000000640000006400000064000000E4
S1130C7CC8000000554E41524D454400010000008F
S1130C8C2041524D454400554E41524D45440000BF
S9030000FC
